S01F0000746573743620436F6E66696775726174696F6E2E656C662E7372656332
S3150800000000200020293F0008793F0008793F0008B2
S31508000010793F0008793F0008793F00080000000092
S31508000020000000000000000000000000793F000802
S31508000030793F000800000000793F0008D53600081F
S31508000040793F0008793F0008793F0008793F0008A2
S31508000050793F0008793F0008E3360008793F000831
S31508000060793F0008793F0008793F0008E93600081B
S31508000070793F0008793F0008793F0008F5360008FF
S31508000080793F0008793F00080137000800000000A2
S31508000090000000000000000000000000793F000892
S315080000A0793F0008793F0008793F0008793F000842
S315080000B0793F00080D370008793F0008793F0008A6
S315080000C0793F00080000000000000000793F0008A2
S315080000D0793F000819370008793F000825370008D6
S315080000E0793F0008793F0008793F000800000000C2
S315080000F000000000000000000000000000000000F2
S3150800010000000000000000000000000000000000E1
S315080001100000000000000000793F000831370008A1
S3150800012000000000000000000000000000000000C1
S3150800013000000000000000000000000000000000B1
S3150800014000000000000000000000000000000000A1
S315080001500000000000000000000000000000000091
S315080001600000000000000000000000000000000081
S315080001700000000000000000000000000000000071
S315080001800000000000000000000000000000000061
S315080001900000000000000000000000000000000051
S315080001A00000000000000000000000000000000041
S315080001B00000000000000000000000000000000031
S315080001C00000000000000000000000005FF808F1D1
S315080001D010B5054C237833B9044B13B10448AFF373
S315080001E000800123237010BD580500200000000080
S315080001F0306F000808B5034B1BB103480349AFF33A
S31508000200008008BD00000000306F00085C05002073
S3150800021010F8012B11F8013B012A28BF9A42F7D0A2
S31508000220D01A7047D0400B1CD1409C46203AD34088
S3150800023018435242634693401843704781F0004181
S3150800024002E000BF83F0004330B54FEA41044FEAAD
S31508000250430594EA050F08BF90EA020F1FBF54EA48
S31508000260000C55EA020C7FEA645C7FEA655C00F0E4
S31508000270E2804FEA5454D4EB5555B8BF6D420CDDB5
S315080002802C4480EA020281EA030382EA000083EA38
S31508000290010180EA020281EA0303362D88BF30BDD8
S315080002A011F0004F4FEA01314FF4801C4CEA11312E
S315080002B002D0404261EB410113F0004F4FEA03338D
S315080002C04CEA133302D0524263EB430394EA050F18
S315080002D000F0A780A4F10104D5F1200E0DDB02FA87
S315080002E00EFC22FA05F2801841F1000103FA0EF21B
S315080002F0801843FA05F359410EE0A5F120050EF1E1
S31508000300200E012A03FA0EFC28BF4CF0020C43FA11
S3150800031005F3C01851EBE37101F0004507D54FF01E
S31508000320000EDCF1000C7EEB00006EEB0101B1F56E
S31508000330801F1BD3B1F5001F0CD349085FEA3000B4
S315080003404FEA3C0C04F101044FEA445212F5800FBF
S3150800035080F09A80BCF1004F08BF5FEA500C50F15C
S31508000360000041EB045141EA050130BD5FEA4C0C3F
S31508000370404141EB010111F4801FA4F10104E9D1C8
S3150800038091F0000F04BF01460020B1FA81F308BFBF
S315080003902033A3F10B03B3F120020CDA0C3208DD8B
S315080003A002F1140CC2F10C0201FA0CF021FA02F166
S315080003B00CE002F11402D8BFC2F1200C01FA02F1D6
S315080003C020FA0CFCDCBF41EA0C019040E41AA2BFFB
S315080003D001EB0451294330BD6FEA04041F3C1CDAC3
S315080003E00C340EDC04F11404C4F1200220FA04F0E3
S315080003F001FA02F340EA030021FA04F345EA03018D
S3150800040030BDC4F10C04C4F1200220FA02F001FA4E
S3150800041004F340EA0300294630BD21FA04F02946D0
S3150800042030BD94F0000F83F4801306BF81F4801169
S315080004300134013D4EE77FEA645C18BF7FEA655CDC
S3150800044029D094EA050F08BF90EA020F05D054EAAE
S31508000450000C04BF1946104630BD91EA030F1EBFB3
S315080004600021002030BD5FEA545C05D140004941B7
S3150800047028BF41F0004130BD14F580043CBF01F5AA
S31508000480801130BD01F0004545F0FE4141F4700190
S315080004904FF0000030BD7FEA645C1ABF194610466B
S315080004A07FEA655C1CBF0B46024650EA013406BF6C
S315080004B052EA033591EA030F41F4002130BD00BF2B
S315080004C090F0000F04BF0021704730B54FF48064E8
S315080004D004F132044FF000054FF0000150E700BF69
S315080004E090F0000F04BF0021704730B54FF48064C8
S315080004F004F1320410F0004548BF40424FF00001B5
S315080005003EE700BF42004FEAE2014FEA31014FEAF7
S3150800051002701FBF12F07F4393F07F4F81F0605146
S31508000520704792F0000F14BF93F07F4F704730B5B5
S315080005304FF4607401F0004521F0004120E700BF48
S3150800054050EA010208BF704730B54FF000050AE0CF
S3150800055050EA010208BF704730B511F0004502D5D0
S31508000560404261EB41014FF4806404F132045FEAD2
S31508000570915C3FF4DCAE4FF003025FEADC0C18BF77
S3150800058003325FEADC0C18BF033202EBDC02C2F16D
S31508000590200300FA03FC20FA02F001FA03FE40EAFF
S315080005A00E0021FA02F11444C1E600BF70B54FF0FF
S315080005B0FF0C4CF4E06C1CEA11541DBF1CEA1355E1
S315080005C094EA0C0F95EA0C0F00F0DEF82C4481EA49
S315080005D0030621EA4C5123EA4C5350EA013518BF69
S315080005E052EA033541F4801143F4801338D0A0FB56
S315080005F002CE4FF00005E1FB02E506F00042E0FB03
S3150800060003E54FF00006E1FB03569CF0000F18BF08
S315080006104EF0010EA4F1FF04B6F5007F64F54074B0
S3150800062004D25FEA4E0E6D4146EB060642EAC62143
S3150800063041EA55514FEAC52040EA5E504FEACE2EB0
S31508000640B4F1FD0C88BFBCF5E06F1ED8BEF1004FB3
S3150800065008BF5FEA500E50F1000041EB045170BD2F
S3150800066006F0004646EA010140EA020081EA030173
S31508000670B4EB5C04C2BFD4EB0C0541EA045170BD6F
S3150800068041F480114FF0000E013C00F3AB8014F1E9
S31508000690360FDEBF002001F0004170BDC4F1000432
S315080006A0203C35DA0C341BDC04F11404C4F12005B3
S315080006B000FA05F320FA04F001FA05F240EA02000E
S315080006C001F0004221F0004110EBD37021FA04F644
S315080006D042EB06015EEA430E08BF20EAD37070BDFE
S315080006E0C4F10C04C4F1200500FA04F320FA05F05D
S315080006F001FA04F240EA020001F0004110EBD3705F
S3150800070041F100015EEA430E08BF20EAD37070BDCE
S31508000710C4F1200500FA05F24EEA020E20FA04F3A7
S3150800072001FA05F243EA020321FA04F001F0004156
S3150800073021FA04F220EA020000EBD3705EEA430EC7
S3150800074008BF20EAD37070BD94F0000F0FD101F0F6
S315080007500046400041EB010111F4801F08BF013C2F
S31508000760F7D041EA060195F0000F18BF704703F06D
S315080007700046520043EB030313F4801F08BF013DF4
S31508000780F7D043EA0603704794EA0C0F0CEA1355B0
S3150800079018BF95EA0C0F0CD050EA410618BF52EA6A
S315080007A04306D1D181EA030101F000414FF0000070
S315080007B070BD50EA410606BF1046194652EA43067E
S315080007C019D094EA0C0F02D150EA013613D195EAF2
S315080007D00C0F05D152EA03361CBF104619460AD13A
S315080007E081EA030101F0004141F0FE4141F4700144
S315080007F04FF0000070BD41F0FE4141F4780170BD34
S3150800080070B54FF0FF0C4CF4E06C1CEA11541DBF98
S315080008101CEA135594EA0C0F95EA0C0F00F0A7F89A
S31508000820A4EB050481EA030E52EA03354FEA0131C7
S3150800083000F088804FEA03334FF0805545EA1313DA
S3150800084043EA12634FEA022245EA111545EA1065A2
S315080008504FEA00260EF000419D4208BF964244F139
S31508000860FD0404F5407402D25B084FEA3202B61A58
S3150800087065EB03055B084FEA32024FF480104FF42C
S31508000880002CB6EB020E75EB030E22BFB61A7546A0
S3150800089040EA0C005B084FEA3202B6EB020E75EB33
S315080008A0030E22BFB61A754640EA5C005B084FEA9B
S315080008B03202B6EB020E75EB030E22BFB61A754668
S315080008C040EA9C005B084FEA3202B6EB020E75EB73
S315080008D0030E22BFB61A754640EADC0055EA060E34
S315080008E018D04FEA051545EA16754FEA06164FEA77
S315080008F0C30343EA52734FEAC2025FEA1C1CC0D123
S3150800090011F4801F0BD141EA00014FF000004FF0AF
S31508000910004CB6E711F4801F04BF01430020B4F170
S31508000920FD0C88BFBCF5E06F3FF6AFAEB5EB030C28
S3150800093004BFB6EB020C5FEA500C50F1000041EB25
S31508000940045170BD0EF0004E4EEA113114EB5C04F2
S31508000950C2BFD4EB0C0541EA045170BD41F48011C5
S315080009604FF0000E013C90E645EA060E8DE60CEACD
S31508000970135594EA0C0F08BF95EA0C0F3FF43BAFEA
S3150800098094EA0C0F0AD150EA01347FF434AF95EAA1
S315080009900C0F7FF425AF104619462CE795EA0C0F85
S315080009A006D152EA03353FF4FDAE1046194622E752
S315080009B050EA410618BF52EA43067FF4C5AE50EA2C
S315080009C041047FF40DAF52EA43057FF4EBAE12E71C
S315080009D04FF0FF3C06E000BF4FF0010C02E000BFFD
S315080009E04FF0010C4DF804CD4FEA410C7FEA6C5CE0
S315080009F04FEA430C18BF7FEA6C5C1BD001B050EA83
S31508000A00410C0CBF52EA430C91EA030F02BF90EA6D
S31508000A10020F0020704710F1000F91EA030F58BF2C
S31508000A20994208BF90422CBFD8176FEAE37040F08E
S31508000A30010070474FEA410C7FEA6C5C02D150EA2C
S31508000A40013C07D14FEA430C7FEA6C5CD6D152EAE7
S31508000A50033CD3D05DF8040B704700BF84461046AC
S31508000A6062468C461946634600E000BF01B5FFF7AB
S31508000A70B7FF002848BF10F1000F01BD4DF808ED7B
S31508000A80FFF7F4FF0CBF012000205DF808FB00BF4C
S31508000A904DF808EDFFF7EAFF34BF012000205DF8A6
S31508000AA008FB00BF4DF808EDFFF7E0FF94BF0120F3
S31508000AB000205DF808FB00BF4DF808EDFFF7CEFFF4
S31508000AC094BF012000205DF808FB00BF4DF808ED33
S31508000AD0FFF7C4FF34BF012000205DF808FB00BF04
S31508000AE04FEA410212F5001215D211D56FF4787348
S31508000AF0B3EB625212D94FEAC12343F0004343EAEB
S31508000B00505311F0004F23FA02F018BF40427047C5
S31508000B104FF00000704750EA013005D111F000404F
S31508000B2008BF6FF0004070474FF00000704700BFE5
S31508000B304FEA4102B2F1E04324BFB3F5001CDCF1F1
S31508000B40FE5C0DD901F0004C4FEAC0024CEA507029
S31508000B50B2F1004F40EB830008BF20F00100704758
S31508000B6011F0804F21D113F13872BCBF01F000405B
S31508000B70704741F480114FEA5252C2F11802C2F18D
S31508000B80200C10FA0CF320FA02F018BF40F001000E
S31508000B904FEAC1234FEAD32303FA0CFC40EA0C00C0
S31508000BA023FA02F34FEA4303CCE77FEA625307D1FD
S31508000BB050EA01331EBF4FF0FE4040F44000704734
S31508000BC001F0004040F0FE4040F40000704700BFCE
S31508000BD080F0004002E000BF81F0004142001FBFE4
S31508000BE05FEA410392EA030F7FEA226C7FEA236CED
S31508000BF06AD04FEA1262D2EB1363C1BFD2184140E2
S31508000C0048404140B8BF5B42192B88BF704710F077
S31508000C10004F40F4000020F07F4018BF404211F01A
S31508000C20004F41F4000121F07F4118BF494292EA82
S31508000C30030F3FD0A2F1010241FA03FC10EB0C00AE
S31508000C40C3F1200301FA03F100F0004302D549423B
S31508000C5060EB4000B0F5000F13D3B0F1807F06D3E8
S31508000C6040084FEA310102F10102FE2A51D2B1F1E0
S31508000C70004F40EBC25008BF20F0010040EA0300D5
S31508000C807047490040EB000010F4000FA2F1010282
S31508000C90EDD1B0FA80FCACF1080CB2EB0C0200FA0C
S31508000CA00CF0AABF00EBC25052421843BCBFD0405A
S31508000CB01843704792F0000F81F4000106BF80F4D4
S31508000CC000000132013BB5E74FEA41037FEA226C97
S31508000CD018BF7FEA236C21D092EA030F04D092F062
S31508000CE0000F08BF0846704790EA010F1CBF002096
S31508000CF0704712F07F4F04D1400028BF40F00040F3
S31508000D00704712F100723CBF00F50000704700F012
S31508000D10004343F0FE4040F4000070477FEA226239
S31508000D2016BF08467FEA23630146420206BF5FEA0A
S31508000D30412390EA010F40F4800070474FF000030A
S31508000D4004E000BF10F0004348BF40425FEA000CD1
S31508000D5008BF704743F0964301464FF000001CE079
S31508000D6050EA010208BF70474FF000030AE000BFCF
S31508000D7050EA010208BF704711F0004302D540420D
S31508000D8061EB41015FEA010C02BF8446014600207F
S31508000D9043F0B64308BFA3F18053A3F50003BCFA9A
S31508000DA08CF2083AA3EBC25310DB01FA02FC634447
S31508000DB000FA02FCC2F12002BCF1004F20FA02F24E
S31508000DC043EB020008BF20F00100704702F1200241
S31508000DD001FA02FCC2F1200250EA4C0021FA02F2A2
S31508000DE043EB020008BF20EADC7070474FEA400276
S31508000DF0B2F1FE4F0FD34FF09E03B3EB12620DD93B
S31508000E004FEA002343F0004310F0004F23FA02F0A4
S31508000E1018BF404270474FF00000704712F1610F4B
S31508000E2001D1420205D110F0004008BF6FF0004022
S31508000E3070474FF0000070474BB942B9002908BF08
S31508000E40002802D04FF0FF31084600F03BB882B0C8
S31508000E50EC462DE9005000F01DF8DDF804E002B07C
S31508000E600CBC70472DE9704F089E14461D468046F7
S31508000E70894600F029F804FB01F3A4FB00AB00FB4C
S31508000E8005329344B8EB0A0869EB0B09C6E90089F1
S31508000E90BDE8708F2DE9704F089E14461D468046A2
S31508000EA0894600F061F900FB05F5A0FB04AB04FBDD
S31508000EB00154A344B8EB0A0869EB0B09C6E9008993
S31508000EC0BDE8708F704700BF00292DE9F00FC0F20A
S31508000ED0A1800024002BC0F29880154606460F46CE
S31508000EE0002B3FD18A4258D9B2FA82F34BB1C3F1EB
S31508000EF0200201FA03F720FA02F29D4000FA03F6EF
S31508000F001743290CB7FBF1F201FB1277A8B200FBD5
S31508000F1002F34FEA164C4CEA0747BB4209D97F1938
S31508000F2002F1FF3C80F00581BB4240F20281023AA1
S31508000F302F44FF1AB7FBF1F301FB137100FB03F013
S31508000F40B6B246EA0141884208D9491903F1FF3782
S31508000F5080F0F180884240F2EE80023B43EA02428A
S31508000F60002303E08B420AD900231A461046194685
S31508000F7014B1404261EB4101BDE8F00F7047B3FA86
S31508000F8083F8B8F1000F40F088808B4202D3824282
S31508000F9000F2E28000230122E8E712B90123B3FB3D
S31508000FA0F2F5B5FA85F2002A3AD17F1B280C1FFA0A
S31508000FB085FC0123B7FBF0F100FB11770CFB01F26E
S31508000FC04FEA164848EA0747BA4207D97F1901F196
S31508000FD0FF3802D2BA4200F2C4804146BF1AB7FBB4
S31508000FE0F0F200FB12700CFB02FCB6B246EA0040B7
S31508000FF0844507D9401902F1FF3702D2844500F229
S31508001000AE803A4642EA0142B0E7E443524263EB15
S31508001010430362E7404261EB41014FF0FF3459E771
S315080010209540C2F1200927FA09F126FA09F99740ED
S31508001030280CB1FBF0F800FB18111FFA85FC0CFB15
S3150800104008F349EA07094FEA194747EA01418B427B
S3150800105006FA02F608D9491908F1FF327AD28B4204
S3150800106078D9A8F102082944C91AB1FBF0F300FBA4
S3150800107013170CFB03F21FFA89F949EA0747BA4224
S3150800108007D97F1903F1FF3160D2BA425ED9023B14
S315080010902F44BF1A43EA08438CE7C8F1200225FA11
S315080010A002F103FA08FC27FA02F320FA02F207FA19
S315080010B008F741EA0C0C4FEA1C49B3FBF9F109FBA6
S315080010C011331FFA8CFA0AFB01FB17433A0C42EA62
S315080010D003439B4505FA08F008D913EB0C0301F105
S315080010E0FF3235D29B4533D902396344CBEB030330
S315080010F0B3FBF9F209FB12330AFB02FABFB247EA5D
S315080011000347BA4508D917EB0C0702F1FF331BD280
S31508001110BA4519D9023A674442EA0145A5FB0001D6
S31508001120CAEB07078F424FF000030AD305D02A46B9
S315080011301CE76246FDE63B4610E706FA08F68642D5
S31508001140F5D26A1E002311E71A46E5E70B46A0E723
S315080011501146CBE7904687E74346424606E7023AFA
S3150800116050E702392F4439E72DE9F00F14460546B2
S315080011700E46002B43D18A4253D9B2FA82F757B1A9
S31508001180C7F1200620FA06F601FA07F302FA07F471
S3150800119000FA07F51E43210CB6FBF1F201FB1266B5
S315080011A0A0B200FB02F32F0C47EA0646B34209D960
S315080011B0361902F1FF3780F0FD80B34240F2FA801B
S315080011C0023A2644F61AB6FBF1F301FB136100FB5B
S315080011D003F0ADB245EA0141884208D9091903F17D
S315080011E0FF3680F0E980884240F2E680023B43EA17
S315080011F00242002310461946BDE8F00F70478B429D
S315080012004CD8B3FA83F6002E4FD18B4202D38242D2
S3150800121000F2DD80BDE8F00F0023012210461946D2
S31508001220704712B90124B4FBF2F4B4FA84F2002A26
S3150800123040F08280091B260CA7B20123B1FBF6F009
S3150800124006FB101107FB00F24FEA154C4CEA014168
S315080012508A4207D9091900F1FF3C02D28A4200F2F4
S31508001260C8806046891AB1FBF6F206FB121107FB25
S3150800127002F7ADB245EA0145AF4208D92C1902F189
S31508001280FF3180F09B80A74240F29880023A42EAFA
S31508001290004210461946BDE8F00F704700231A466B
S315080012A010461946BDE8F00F7047C6F1200522FA28
S315080012B005F703FA06F421FA05F301FA06FB20FA04
S315080012C005F53C434FEA1448B3FBF8FC08FB1C330E
S315080012D01FFA84F909FB0CFA45EA0B0B4FEA1B4582
S315080012E045EA03439A4502FA06F204D91B190CF19A
S315080012F0FF356FD3AC46CAEB0303B3FBF8F508FB1F
S31508001300153309FB05F91FFA8BFB4BEA0347B94569
S3150800131004D93F1905F1FF3362D31D4645EA0C4C43
S31508001320ACFB0223C9EB07079F424FF000054AD3DF
S3150800133046D062462B465DE79440C2F1200921FA61
S3150800134009FC914020FA09F9260CBCFBF6F806FBC5
S3150800135018CCA7B207FB08F349EA01094FEA194175
S3150800136041EA0C4C634500FA02F509D91CEB040C5A
S3150800137008F1FF323BD2634539D9A8F10208A444E3
S31508001380C3EB0C0CBCFBF6F306FB13C107FB03F21D
S315080013901FFA89F949EA01418A4207D9091903F16D
S315080013A0FF3022D28A4220D9023B2144891A43EAD5
S315080013B0084343E73A4605E7334618E70A4666E729
S315080013C0B0409042B5D20CF1FF32002312E7334603
S315080013D032460FE79A458DD9ACF1020C23448AE7C9
S315080013E0B9459AD9023D274498E70346DEE7904671
S315080013F0C6E70238214435E72DE9F8430568C3688E
S315080014002A69016922F4405213432B618268EB680A
S315080014101143426923F4B0530A4323F00C031343E0
S31508001420EB606A69836922F4407213436B61234B4C
S3150800143004469D424FF0190615D101F09BF87043FA
S31508001440636864279B00B0FBF3F801F093F87043D8
S315080014506368B8FBF7F89B004FEA0818B0FBF3F986
S3150800146001F088F814E001F06FF8704363686427A8
S315080014709B00B0FBF3F801F067F870436368B8FBAC
S31508001480F7F89B004FEA0818B0FBF3F901F05CF88F
S31508001490704363689B00B0FBF3F6B6FBF7F607FBF1
S315080014A016994FEA091909F13209B9FBF7F707F056
S315080014B00F0747EA0807AF60BDE8F8830038014020
S315080014C0F8B504460E46154601F0B6FF07462268EB
S315080014D013683340B34221D06B1CF9D0C5B92368D1
S315080014E00320DA6822F08002DA60DA6822F0200245
S315080014F0DA60DA6822F48072DA605A6922F0010248
S315080015005A61012384F83930002384F83830F8BD4D
S3150800151001F092FFC01BA842D9D9E0E70020F8BD28
S3150800152010B5044630B390F8393003F0FF021BB902
S3150800153080F8382001F0E4FF022384F83930236864
S315080015402046DA6822F40052DA60FFF755FF23686E
S3150800155000201A6922F490421A615A6922F02A0276
S315080015605A61DA6842F40052DA600123E06384F8CB
S31508001570393010BD012010BD70B51E4690F83930BF
S315080015800446DBB2012B0D4601D0222B4ED1002D8D
S315080015904AD0002A48D094F83830012B46D0012387
S315080015A084F838300023E36394F83930A284222B78
S315080015B00CBF3223122384F83930E284E38C03B358
S315080015C0013BE384A3682046B3F5805F4FF08001B2
S315080015D032460DD1FFF774FF08B1032070BD2A8883
S315080015E02368C2F308025A60236943B90235E5E75E
S315080015F0FFF766FF0028F0D123682A785A6001357C
S31508001600DCE7204640213246FFF75AFF0028E4D19E
S3150800161094F83930322B0CBF2223012384F8393051
S31508001620002384F8383070BD012070BD022070BDDB
S3150800163038B5134690F839200446D2B2012A0D4629
S3150800164001D0122A2BD145B33BB394F83820012A8E
S3150800165025D0012284F838200022E26394F8392044
S31508001660606B122A0CBF3222222284F839200D4AD6
S31508001670A385A56282620C4A2168C2620B4A0431BC
S3150800168002632A4601F0A7F9236800205A6942F046
S3150800169040025A6184F8380038BD012038BD02205E
S315080016A038BD00BFB3160008E7160008F316000891
S315080016B07047026808B51268436A12F020020DD115
S315080016C0DA851A68516921F04001516193F8392089
S315080016D0322A0CBF1222012283F83920184602F05A
S315080016E05FFA08BD704708B5406AFFF7FBFF08BDFB
S315080016F07047406A08B50023C385C384012380F870
S315080017003930C36B43F01003C363FFF7F1FF08BD1D
S315080017101FB5036804461968DA68C9070AD5D205E9
S3150800172008D51A6800925A680092009AC26B42F06D
S315080017300102C26319685A69880702F0010209D5CD
S3150800174042B119680191596801910199E16B41F01B
S315080017500401E1631968490709D542B1196802917C
S31508001760596802910299E16B41F00201E163196837
S31508001770080709D542B11A6803925A680392039A70
S31508001780E26B42F00802E2631968DA68890642D514
S31508001790900640D594F8392002F0EF02222A3AD171
S315080017A0A2682169B2F5805FA26A0BD15B6821B98C
S315080017B0C3F3080322F8023B02E0DBB222F8013B3E
S315080017C0A2620AE019B9511CA1625B6804E05B6871
S315080017D0511CA16203F07F031370E38D013B9BB29A
S315080017E0E385C3B92368DA6822F02002DA6094F840
S315080017F03920322A01D1122308E0DA6822F48072ED
S31508001800DA605A6922F001025A61012384F83930F4
S31508001810204602F0C5F923681968DA68090628D54A
S31508001820100626D594F8392002F0DF02122A20D1B4
S31508001830A268B2F5805F226A0AD11188C1F308014D
S315080018405960216909B9023200E00132226203E0D7
S31508001850511C216212785A60E28C013A92B2E284F3
S315080018603AB9DA6822F08002DA60DA6842F04002B1
S31508001870DA601968DA68490615D5520613D5DA68A2
S3150800188022F04002DA6094F83920322A01D1222364
S3150800189004E05A6922F001025A61012384F83930BA
S315080018A02046FFF705FFE36B2BB1012384F8393097
S315080018B02046FFF71DFF04B010BD90F8383010B56C
S315080018C0012B4FF0020318D080F8393003685A68A4
S315080018D022F070025A605C680A6822435A609A6865
S315080018E022F080029A609C684A6822439A60012323
S315080018F080F83930002380F83830184610BD704714
S31508001900704703680020DA6842F00102DA601A6854
S3150800191042F001021A6070470368DA6822F0010291
S31508001920DA60196A41F211120A4042B9196A40F29C
S3150800193044420A401AB91A6822F001021A600020C5
S31508001940704790F8383030B5012B4FF0020300F09D
S31508001950B08080F839300368012280F838209A6808
S3150800196022F47F4222F077029A600A68402A77D0EA
S3150800197018D8102A00F08B8008D8002A40F09380E7
S315080019809A6822F0700242F007028BE0202A00F0E3
S315080019908480302A40F087809A6822F0700242F0EC
S315080019A037027FE0702A35D01BD8502A41D0602AEA
S315080019B079D11A6A4C6822F01002CD681A629969C0
S315080019C01A6A21F4704122F0A00242EA041241EA9E
S315080019D0053199611A629A6822F0700242F067022C
S315080019E060E0B2F5805F11D0B2F5005F5BD19D680B
S315080019F04C688A6825F47F452243CC682A4342EA24
S31508001A0004229A609A6842F480424BE09A6822F06F
S31508001A10070247E09D684C688A6825F47F4522439B
S31508001A20CC682A4342EA04229A609A6842F077020E
S31508001A3038E01A6A4C68CD68196A22F00A0221F061
S31508001A40010119629969224321F0F00141EA051161
S31508001A5099611A629A6822F0700242F0570221E0F0
S31508001A601A6A4C68CD68196A22F00A0221F0010147
S31508001A7019629969224321F0F00141EA0511996139
S31508001A801A629A6822F0700242F047020AE09A68DF
S31508001A9022F0700242F0170204E09A6822F07002FF
S31508001AA042F027029A60012380F83930002380F833
S31508001AB03830184630BD70477047704770477047D2
S31508001AC0036810B51A690446910714D5DA689207AF
S31508001AD011D56FF002021A619B6901229B070276F3
S31508001AE002D0FFF7EAFF04E0FFF7E6FF2046FFF71C
S31508001AF0E5FF0023237623681A69500716D5DA68A6
S31508001B00510713D56FF004021A619B69022213F478
S31508001B10407F2276204602D0FFF7CFFF04E0FFF78A
S31508001B20CBFF2046FFF7CAFF0023237623681A69EE
S31508001B30120715D5DA68100712D56FF008021A6170
S31508001B40DB69042299072276204602D0FFF7B5FF03
S31508001B5004E0FFF7B1FF2046FFF7B0FF0023237626
S31508001B6023681A69D20616D5DA68D00613D56FF037
S31508001B7010021A61DB69082213F4407F2276204698
S31508001B8002D0FFF79AFF04E0FFF796FF2046FFF71B
S31508001B9095FF0023237623681A69D10708D5DA68E2
S31508001BA0D20705D56FF001021A612046FFF783FFB9
S31508001BB023681A69100608D5DA68110605D56FF084
S31508001BC080021A612046FFF79BFE23681A695206AF
S31508001BD008D5DA68500605D56FF040021A61204626
S31508001BE0FFF76DFF23681A6991060AD5DA68920627
S31508001BF007D56FF0200220461A61BDE81040FFF7AE
S31508001C007EBE10BD244A036890420AD0B0F1804FC8
S31508001C1007D0A2F59432904203D002F58062904232
S31508001C2011D14A6823F0700313431B4A904215D01A
S31508001C30B0F1804F12D0A2F5943290420ED002F540
S31508001C40806290420AD0154A904207D002F5806217
S31508001C50904203D002F58062904203D1CA6823F409
S31508001C604073134303608B68C3620B6883620A4B35
S31508001C7098420BD003F5A053984207D003F580632A
S31508001C80984203D003F58063984201D10B69036338
S31508001C9001234361704700BF002C0140004001400A
S31508001CA010B50446A0B190F8393003F0FF021BB90D
S31508001CB080F8382001F0DAFC022384F839302068ED
S31508001CC0211DFFF79FFF012384F83930002010BD3E
S31508001CD0012010BD036873B50546D80767D53B4C88
S31508001CE0E36943F08053E361E36903F080530193AA
S31508001CF0019B374B1A6842F480721A6001F09CFB0C
S31508001D000646334B1B68D90506D401F095FB801BA4
S31508001D106428F6D9032056E0226A6B68534013F408
S31508001D20407F44D0294B4FF480301B6A23F440721D
S31508001D3090FAA0F02749B0FA80F0012641F8206011
S31508001D404FF4803090FAA0F00026B0FA80F041F8FF
S31508001D50206022629A0706D4226A6B6822F44072CF
S31508001D601343236223E001F067FB0646022393FA36
S31508001D70A3F3022393FAA3F3B3FA83F343F04003DE
S31508001D805B09022B0CBF236A636A022292FAA2F24B
S31508001D90B2FA82F202F01F02D340DB07DCD401F06C
S31508001DA04BFB41F28833801B9842DFD9B2E728689B
S31508001DB010F0020007D0054BA9685A68002022F4E3
S31508001DC040420A435A6002B070BD00BF001002408C
S31508001DD00070004000044242036873B5DE070546FA
S31508001DE004D42B689C0700F1A38019E1B84C6368FA
S31508001DF003F00C03042B07D0636803F00C03082BCD
S31508001E0018D16368D80315D54FF4003393FAA3F3B2
S31508001E104FF40033226893FAA3F3B3FA83F303F07B
S31508001E201F0322FA03F3D907DBD56B68002BD8D139
S31508001E30012090E2236823F480332360236823F487
S31508001E408023236001F0F8FA06464FF4003393FA2C
S31508001E50A3F34FF40033226893FAA3F3B3FA83F398
S31508001E6003F01F0322FA03F3DA0708D501F0E4FAB0
S31508001E7041F28833801B9842E7D903206BE26B68EE
S31508001E80B3F5803F13D05BB9236823F4803323600E
S31508001E90236823F48023236001F0CEFA064635E052
S31508001EA0B3F5A02F236806D143F480232360236863
S31508001EB043F4803305E023F480332360236823F456
S31508001EC08023236001F0B8FA06464FF4003393FAEC
S31508001ED0A3F34FF40033226893FAA3F3B3FA83F318
S31508001EE003F01F0322FA03F3DB073FF57AAF01F08D
S31508001EF0A3FA41F28833801B9842E6D9BDE701F080
S31508001F009BFA41F28833801B9842B6D84FF40033C7
S31508001F1093FAA3F34FF40033226893FAA3F3B3FAC0
S31508001F2083F303F01F0322FA03F3D807E7D458E72D
S31508001F30674C636813F00C0F07D0636803F00C0353
S31508001F40082B16D16368D90313D4022393FAA3F393
S31508001F500223226893FAA3F3B3FA83F303F01F0369
S31508001F6022FA03F3DA072AD52B69012B7FF460AF2F
S31508001F7025E02A69012382B393FAA3F3B3FA83F31C
S31508001F809B0003F1844303F5840301221A6001F0E0
S31508001F9053FA0646022393FAA3F30223226893FA16
S31508001FA0A3F3B3FA83F303F01F0322FA03F3DB0761
S31508001FB005D401F041FA801B6428EBD95DE7226855
S31508001FC0F82191FAA1F16B69B1FA81F18B4022F0FF
S31508001FD0F80213433E4A136022E093FAA3F3B3FAD6
S31508001FE083F39B0003F1844303F5840300221A60FC
S31508001FF001F022FA0646022393FAA3F30223226883
S3150800200093FAA3F3B3FA83F303F01F0322FA03F355
S31508002010D80705D501F010FA801B6428EBD92CE700
S315080020202B6819074CD5A969294C0122294B29B3D4
S3150800203092FAA2F20121B2FA82F243F8221001F0D2
S31508002040FBF90646022393FAA3F3022393FAA3F3B2
S315080020500223626A93FAA3F3B3FA83F303F01F0326
S3150800206022FA03F3DA0705D401F0E6F9801B64289F
S31508002070E8D902E7012001F0E5F921E092FAA2F297
S315080020800021B2FA82F243F8221001F0D5F9064689
S31508002090022393FAA3F3022393FAA3F30223626AB1
S315080020A093FAA3F3B3FA83F303F01F0322FA03F3B5
S315080020B0DB0705D501F0C0F9801B6428E8D9DCE602
S315080020C02B68580708D4EB69002B40F0B5800FE160
S315080020D00010024080044242A04CE36943F080535A
S315080020E0E361E36903F080530193019B9C4B1A68F3
S315080020F042F480721A6001F09FF90646984B1B68F5
S31508002100D90505D401F098F9801B6428F6D9B4E6F8
S31508002110236A23F001032362236A23F0040323625C
S3150800212001F08AF90646022393FAA3F3022393FAE7
S31508002130A3F3B3FA83F343F040035B09022B0CBF06
S31508002140236A636A022292FAA2F2B2FA82F202F0D1
S315080021501F02D340DA0707D501F06EF941F288333A
S31508002160801B9842DFD988E6EB68012B12D05BB951
S31508002170236A23F001032362236A23F004032362FC
S3150800218001F05AF906463DE0052B236A06D143F0CD
S3150800219004032362236A43F0010305E023F00103E5
S315080021A02362236A23F00403236201F045F90646F5
S315080021B0022393FAA3F3022393FAA3F3B3FA83F35E
S315080021C043F040035B09022B0CBF236A636A0222B1
S315080021D092FAA2F2B2FA82F202F01F02D340DB07A9
S315080021E03FF571AF01F028F941F28833801B984218
S315080021F0DED942E601F020F941F28833801B984285
S315080022003FF63BAE022393FAA3F3022393FAA3F312
S31508002210B3FA83F343F040035B09022B0CBF236A2E
S31508002220636A022292FAA2F2B2FA82F202F01F025C
S31508002230D340D807DED446E7484C626802F00C0261
S31508002240082A3FF4F5AD022B4FF080735ED193FA5E
S31508002250A3F3B3FA83F39B0003F1844303F58403E2
S3150800226000221A6001F0E8F806464FF0007393FA68
S31508002270A3F34FF00073226893FAA3F3B3FA83F338
S3150800228003F01F0322FA03F3D90733D42B6AB3F5F5
S31508002290803F05D1E16AAA6821F00F010A43E2628C
S315080022A06268696A22F474120B43134363604FF041
S315080022B0807393FAA3F3B3FA83F39B0003F1844381
S315080022C003F5840301221A6001F0B6F805464FF0BB
S315080022D0007393FAA3F34FF00073226893FAA3F3FB
S315080022E0B3FA83F303F01F0322FA03F3DA0707D5D9
S315080022F0002030E001F0A0F8801B6428B5D9BCE5C1
S3150800230001F09AF8401B6428E1D9B6E593FAA3F3DD
S31508002310B3FA83F39B0003F1844303F58403002295
S315080023201A6001F089F805464FF0007393FAA3F393
S315080023304FF00073226893FAA3F3B3FA83F303F01A
S315080023401F0322FA03F3DB07D2D501F075F8401B09
S315080023506428E9D991E502B070BD00BF00100240BB
S3150800236000700040036870B59C07054606D53F4ACD
S31508002370A968506820F0F00001435160D8070AD4D4
S315080023802B68590761D5394AE968506820F4E06036
S315080023900143516059E06B68344C012B07D14FF467
S315080023A0003292FAA2F24FF4003221680EE0022BB4
S315080023B007D14FF0007292FAA2F24FF0007221682C
S315080023C004E0022292FAA2F22168022292FAA2F20A
S315080023D0B2FA82F202F01F0221FA02F2D20743D5BC
S315080023E0626822F003021343636001F025F86B6804
S315080023F00646012B0DD1636803F00C03042BBFD0EE
S3150800240001F01AF841F28833801B9842F3D9032069
S3150800241070BD022B0BD0636813F00C0F0DD1AFE71C
S3150800242001F00AF841F28833801B9842EFD86368B6
S3150800243003F00C03082BF3D1A2E700F0FDFF41F2ED
S315080024408833801B9842E6D9E1E71B0707D5074B77
S3150800245029695A6822F4605242EAC1025A60002089
S3150800246000F0C4FF002070BD012070BD00100240BE
S3150800247030B5234B89B06C4603F1100518685968C6
S31508002480224603C20833AB421446F7D11D4B04ACAF
S3150800249003F1100518685968224603C20833AB428F
S315080024A01446F7D1184A536803F00C010829114657
S315080024B023D14FF4701292FAA2F203F47010B2FA12
S315080024C082F220FA02F208A80244DB0312F8202C52
S315080024D010D5CB6A0F2191FAA1F1B1FA81F103F077
S315080024E00F03CB4008A90B4413F8103C0748B0FB70
S315080024F0F3F000E00648504300E0044809B030BD58
S31508002500486F0008586F00080010024000127A0051
S3150800251000093D0008B5FFF7ABFF084BF0225B68E2
S3150800252092FAA2F2B2FA82F203F0F003D340044A16
S31508002530D35CD840034B186008BD00BF00100240AA
S31508002540686F00080000002008B5FFF7E3FF074B97
S315080025504FF4E0625B6892FAA2F2B2FA82F203F4EE
S31508002560E063D340024AD35CD84008BD001002405D
S31508002570686F000808B5FFF7CDFF074B4FF46052A8
S315080025805B6892FAA2F2B2FA82F203F46053D3407D
S31508002590024AD35CD84008BD00100240686F0008A4
S315080025A02DE9F341002425460123AB400A681A4069
S315080025B09A4240F0A5804B68122B29D00ED8022BE0
S315080025C023D004D83BB3012B30D1CC682EE0032BA3
S315080025D029D0112B2AD1CC68043427E04C4EB342BB
S315080025E019D006D8A6F58016B34214D006F580365B
S315080025F008E0484EB3420ED006F58036B3420AD0FC
S31508002600A6F58016B34211D105E0CC6808340DE072
S31508002610CC680C340AE08B683BB1012B0CBF026115
S315080026204261082402E0002400E00424FF2A02D8BC
S315080026300346AE0003E0A5F10806031DB6004FF0F9
S315080026400F0808FA06FC04FA06F61F6827EA0C07BC
S315080026503E431E604E68F30052D505F0030C4FEA60
S315080026608C0C08FA0CF82C4B9F6947F001079F6100
S315080026709B6903F001030193019B25F0030303F112
S31508002680804303F580339F6827EA0808234FB8423A
S315080026900ED007F58067B8420CD007F58067B842B8
S315080026A00AD007F58067B84214BF0427032704E059
S315080026B0002702E0012700E0022707FA0CF747EA9D
S315080026C008079F60164B16F4803F1F6814BF174310
S315080026D097431F605F6816F4003F14BF174397437C
S315080026E05F609F6816F4801F14BF174397439F6067
S315080026F016F4001FDE6814BF324326EA0202DA60C7
S315080027000135102D7FF450AF02B0BDE8F08100BF4F
S31508002710000021100000311000100240000801409E
S315080027200004014008B5044B5969084202D05861B3
S3150800273001F0D4F808BD00BF00040140064B002292
S31508002740DA61064B1A6942F004021A611A6942F004
S3150800275040021A61704700BFC805002000200240E9
S31508002760064B0022DA61064B1A6942F002021A6128
S3150800277058611A6942F040021A617047C80500207C
S31508002780002002402DE9F041234E0546337E0F46D0
S31508002790012B3ED003684FF00108022B86F81880FB
S315080027A04CF2503010D100F07FF808B101202CE02F
S315080027B0FFF7C4FF4CF2503000F076F8174B1A6951
S315080027C022F004021A6120E000F06EF80028EDD12C
S315080027D04FF0FF333B60AC684046EA68AB6803EBF2
S315080027E082239C4211D22046FFF7BAFF4CF25030A2
S315080027F000F05AF8094B1A6922F002021A6108B168
S315080028003C6002E004F58064E7E700233376BDE820
S31508002810F0810220BDE8F081C805002000200240B2
S31508002820114BDA6812F0100F1A4604D00F4BD9690B
S3150800283041F00201D961D368590704D50B4BDA690F
S3150800284042F00102DA61084BDA69D20708D5074A6D
S31508002850D16941F00401D161DA6922F00102DA6135
S315080028601422DA60704700BF00200240C805002025
S31508002870064B1A69120606D5054A00205A6002F167
S3150800288088325A6070470120704700BF0020024016
S3150800289023016745034B00201A6942F080021A613A
S315080028A0704700BF0020024038B5044600F0C4FD5A
S315080028B00546114BDA68D2070AD5611CF9D00CB95E
S315080028C0032038BD00F0B8FD401BA042F1D9F7E758
S315080028D0DA68900644BF2022DA60DB68064AD90621
S315080028E006D4D3685B0703D4D06910F0010002D080
S315080028F0FFF796FF012038BD002002402DE9F0477A
S315080029001D46204B14461A7E0646012A89469846D5
S3150800291034D001234CF2503088F81830FFF7C4FF42
S3150800292038BB012E06D0022E14BF4FF0040A4FF012
S31508002930020A00E0B2460026320120462946FDF783
S3150800294071FC114F0023C8F81C303B6980B243F074
S3150800295001033B6129F816004CF25030FFF7A4FF3B
S315080029603B6923F001033B6118B90136F3B25345BD
S31508002970E2D3002388F81830BDE8F0870220BDE8C6
S31508002980F08700BFC80500200020024010B500B33C
S3150800299090F821300BB980F82030416884680268C5
S315080029A00C43C16813680C43016923F47F530C4335
S315080029B0416923F030030C4381690C43C169214303
S315080029C00B43136000230122436380F82120184635
S315080029D010BD012010BD30B590F82040012C4FF0F5
S315080029E0020423D080F821400468012580F820508D
S315080029F0256825F001052560636043680020102BD3
S31508002A000BBFA260A160E160E260236843F00203A5
S31508002A102360236843F004032360236843F0080314
S31508002A202360236843F00103236030BD204630BD90
S31508002A3038B5904B904D196803680446AB4213D0DD
S31508002A408E4A934212D01432934211D014329342D2
S31508002A5011D01432934211D01432934214BF4FF05E
S31508002A6000624FF400020BE0082209E0802207E02A
S31508002A704FF4006204E04FF4004201E04FF40022F4
S31508002A800A4238D01A68110735D51A68AB4222F0BF
S31508002A9008021A6013D0794A934212D0143293422C
S31508002AA011D01432934211D01432934211D01432F9
S31508002AB0934214BF4FF000634FF400030BE0082362
S31508002AC009E0802307E04FF4006304E04FF4004375
S31508002AD001E04FF40023674A5360636B43F0010338
S31508002AE06363042384F82130002384F82030236BA1
S31508002AF00BB1204698475F4B19682368AB4213D041
S31508002B005E4A934212D01432934211D01432934241
S31508002B1011D01432934211D01432934214BF4FF09D
S31508002B2080624FF480020BE0042209E0402207E0AD
S31508002B304FF4806204E04FF4804201E04FF48022B3
S31508002B400A4234D01A68520731D51A68900603D457
S31508002B501A6822F004021A60AB4213D0474A93421D
S31508002B6012D01432934211D01432934211D0143237
S31508002B70934211D01432934214BF4FF080634FF43E
S31508002B8080030BE0042309E0402307E04FF4806349
S31508002B9004E04FF4804301E04FF48023354A536044
S31508002BA0112384F82130E36A0BB120469847314B4C
S31508002BB019682368AB4213D0304A934212D01432B4
S31508002BC0934211D01432934211D01432934211D049
S31508002BD01432934214BF4FF000724FF400120BE008
S31508002BE0022209E0202207E04FF4007204E04FF4C5
S31508002BF0005201E04FF400320A4239D01A689107B0
S31508002C0036D51A68920603D41A6822F002021A60A8
S31508002C10AB4213D0194A934212D01432934211D0C0
S31508002C201432934211D01432934211D01432934283
S31508002C3014BF4FF000734FF400130BE0022309E0B2
S31508002C40202307E04FF4007304E04FF4005301E03B
S31508002C504FF40033074A5360636B6363012384F8B8
S31508002C602130002384F82030A36A0BB12046984708
S31508002C7038BD00BF00000240080002401C000240A8
S31508002C8010B5044668B1037903F0FF0213B942711F
S31508002C9001F0AAF802232371002001232061237181
S31508002CA010BD012010BD437910B5012B4FF002036A
S31508002CB01ED0012242718A40037103681C682243B0
S31508002CC01A601A6839B902F03C023C2A0CD15A68D3
S31508002CD042F0010207E002F47012B2F5701F03D148
S31508002CE05A6842F002025A600123037100234371B5
S31508002CF0184610BD437930B5012B4FF0020318D0A2
S31508002D0040F6FE759540037103681C6824EA0505BC
S31508002D1012C90C43944045EA0401C02404FA02F29D
S31508002D201960196821EA02021A6001230371002357
S31508002D304371184630BD13B500680024019401900C
S31508002D4011B90199083101E0019914310A44019237
S31508002D50019A0020136002B010BD0000074A00F077
S31508002D600700D36823F4E0631B041B0C43F0BF631E
S31508002D7043F4003343EA0023D360704700ED00E0D4
S31508002D80164B70B5DB68C3F302231D1DC3F1070498
S31508002D90042C28BF0424062D4FF0010505FA04F477
S31508002DA08CBF033B002305FA03F6013C214001FAD8
S31508002DB003F3013E3240134300284FEA031305DAB2
S31508002DC0DAB2074B00F00F001A5470BD00F16040EC
S31508002DD0DBB200F5614080F8003370BD00ED00E01D
S31508002DE014ED00E04209012300F01F0003FA00F089
S31508002DF0014B43F82200704700E100E00138B0F1CA
S31508002E00807F0AD2064B074AF021586082F82310C1
S31508002E100020072298601A6070470120704700BF9B
S31508002E2010E000E000ED00E0044B04281A680CBF2F
S31508002E3042F0040222F004021A60704710E000E033
S31508002E40704708B5FFF7FCFF08BD704708B5436A29
S31508002E509A6A12F0500F1BD19A6A42F400729A626B
S31508002E601A68926802F46022B2F5602F0CD1DA680B
S31508002E7052B99A6A22F480729A629A6AD20403D480
S31508002E809A6A42F001029A62184600F0A5FC08BD4B
S31508002E901B6A1B6B984708BD704708B5406AFFF761
S31508002EA0FBFF08BD7047036810B55A6804469006CC
S31508002EB027D51A68910724D5A26AD20603D4A26A2E
S31508002EC042F40072A2629A6802F46022B2F5602F98
S31508002ED010D1E26872B95A6822F020025A60A36AD1
S31508002EE023F48073A362A36ADB0403D4A36A43F0C2
S31508002EF00103A362204600F06FFC23686FF01202FC
S31508002F001A6023685A68100630D51A6851072DD5F5
S31508002F10A26AD20603D4A26A42F40052A2629A684E
S31508002F2002F4E042B2F5E04F0AD05A68500516D4CA
S31508002F309A6802F46022B2F5602F10D1E26872B97D
S31508002F405A6822F080025A60A36A23F48053A36267
S31508002F50A36AD90503D4A36A43F00103A3622046F2
S31508002F60FFF773FF23686FF00C021A6023685A682C
S31508002F7052060DD51B68DB070AD5A36A204643F41B
S31508002F808033A362FFF78EFF23686FF001021A6091
S31508002F9010BD7047406A08B5836A43F040038362F0
S31508002FA0C36A43F00403C362FFF7F3FF08BD0000DA
S31508002FB02DE9F3410023019390F82430012B00F00A
S31508002FC0B8804C680123062C80F824300A68036808
S31508002FD01BD85E6B4FF4787C9CFAACFC4FF4787780
S31508002FE0BCFA8CFC013C97FAA7F704FB0CFCB7FA71
S31508002FF087F77C434FF01F0808FA0CFC02FA04F422
S3150800300026EA0C0634435C6336E00C2C4FF47875DC
S3150800301019D8D3F830C095FAA5F54FF47877B5FAEC
S3150800302085F5073C97FAA7F76543B7FA87F77C4310
S315080030304FF01F0808FA05F502FA04F42CEA05050C
S315080030402C431C6318E0D3F82CC095FAA5F54FF469
S315080030507877B5FA85F50D3C97FAA7F76543B7FA79
S3150800306087F77C434FF01F0808FA05F502FA04F4BF
S315080030702CEA05052C43DC62092A4FF038048968D6
S3150800308018D9D3F80CC094FAA4F43827B4FA84F4FF
S31508003090A2F10A0597FAA7F76C43B7FA87F77D43B3
S315080030A04FF0070808FA04F4A9402CEA040421435F
S315080030B0D96014E01F6994FAA4F43826B4FA84F4A3
S315080030C096FAA6F6B6FA86F6544356434FF0070C18
S315080030D00CFA04F4B14027EA040421431961A2F169
S315080030E01001012901D900231EE014498B4216D18B
S315080030F099680902F7D49968102A41F40001996081
S31508003100F1D10F4B1A680F4BB2FBF3F30A22534364
S315080031100193019B002BE6D0019B013BF8E7836AEC
S3150800312043F0200383620123002280F824201846F6
S3150800313000E0022002B0BDE8F08100BF0024014093
S315080031400000002040420F0073B500230193036876
S3150800315004469A68D20701D5002026E09A6842F00C
S3150800316001029A60124B1A68124BB2FBF3F30193F1
S31508003170019B13B1019B013BF9E700F05DF9064697
S3150800318023689B6813F00105E6D100F055F9801B0A
S315080031900228F5D9A36A84F8245043F01003A362E1
S315080031A0E36A012043F00103E36202B070BD00BF89
S315080031B00000002040420F002DE9D84190F8243045
S315080031C00446012B8846174653D0012380F824303D
S315080031D0FFF7BAFF002847D1A06A216820F470607B
S315080031E020F0010040F48070A062A36A23F48013E3
S315080031F0A3624B685B0505D5A36A23F4405343F4E1
S315080032008053A362A06A002610F4805017BFE36AB1
S31508003210E06223F00603E362206A174B84F8246011
S315080032208362164B4246C362154B4C3103636FF0FB
S31508003230020341F84C3C51F8443C43F4807341F88E
S31508003240443C3B46FFF7C7FB236830469A6802F4BE
S315080032506022B2F5602F9A680CBF42F4A00242F4CD
S3150800326080129A60BDE8D881002384F82430BDE82E
S31508003270D8810220BDE8D8814D2E00089B2E000873
S31508003280952F000838B5036804469A68D20701D412
S31508003290002038BD9A6822F001029A6000F0CCF846
S315080032A0054623689B68DB07F2D500F0C5F8401B86
S315080032B00228F6D9A36A012043F01003A362E36A41
S315080032C043F00103E36238BD38B50446002800F030
S315080032D08780836A23B9C36280F8243000F0DEFD54
S315080032E02046FFF7CFFFA36A13F0100FA36A74D125
S315080032F0002872D123F4885323F0020343F0020313
S31508003300A3620225E36895FAA5F5B5FA85F503FAE9
S3150800331005F5E16962680A4342EA0500A268B2F562
S31508003320807F05D0012A14BF00214FF4807100E088
S3150800333011466569012D15D163B94FF4604595FAB3
S31508003340A5F5A369B5FA85F5013BAB4041F40061E3
S31508003350194307E0A36A43F02003A362E36A43F034
S315080033600103E3622368B2F5807F5D6825F4694549
S3150800337041EA050159609D681A4905EA010140EAD2
S31508003380010199600AD14FF4700292FAA2F22169FA
S31508003390B2FA82F2013901FA02F200E00022D96A91
S315080033A021F470010A43DA629A680F4B134083428C
S315080033B008D10020E062A36A23F0030343F0010367
S315080033C0A36238BDA36A23F0120343F01003A36275
S315080033D0E36A43F00103E36202E043F01003A362E9
S315080033E0012038BDFDF7E1FFFE0E1FFF10B50446AC
S315080033F0FFF790F84FF47A73B0FBF3F0FFF7FEFC93
S315080034004FF0FF3021460022FFF7BAFC002010BD1E
S3150800341008B50320FFF7A2FC0020FFF7E7FF00F03E
S315080034208DF9002008BD0000024B1A6801321A60A7
S31508003430704700BF74050020014B1868704700BF2D
S315080034407405002013B50190FFF7F6FF0446FFF751
S31508003450F3FF019B001B9842F9D302B010BD000090
S31508003460104B1A6842F001021A6059680E4A0A405F
S315080034705A601A6822F0847222F480321A601A6836
S3150800348022F480221A605A6822F4FE025A604FF427
S315080034901F029A600022DA62044B4FF000629A60BB
S315080034A0704700BF001002400000FFF800ED00E082
S315080034B00748084B4FF4E13C80E808100C2200232B
S315080034C08360C360036142618361C361FEF728B804
S315080034D060060020003801400748084B4FF4E13CDD
S315080034E080E808100C2200238360C36003614261F0
S315080034F08361C361FEF714B8E80500200048004060
S3150800350070B50368334A86B09342064636D1324BC5
S3150800351032489A6902A942F480429A619B69002559
S3150800352003F480430093009B4FF400730293022335
S31508003530039303230593FFF733F84FF4806302A937
S315080035402648274C029303950495FFF729F8254B3F
S31508003550204684E828004FF48053E361A560E560BF
S3150800356025616561A561FFF711FA2520746329466F
S315080035702A466662FFF704FC252027E01A4A93428A
S3150800358026D1154B1948DA6902A942F48022DA6174
S31508003590DB69002403F480230193019B4FF48063C5
S315080035A002930223039303230593FEF7F9FF4FF4CF
S315080035B000630E4802A9029303940494FEF7F0FFF1
S315080035C0272021462246FFF7DBFB2720FFF70AFCC8
S315080035D006B070BD003801400010024000080140E6
S315080035E0280600205800024000480040000C014010
S315080035F030B50F480F4C002540F2E73387B084E812
S31508003600290017232046E3602561FEF749FB06A932
S315080036104FF4805341F8103D2046FEF792F92023D7
S31508003620204669468DE82800FEF747F907B030BD01
S3150800363000040040A006002037B50A4C0A480025B9
S3150800364040F2E73384E8290017232046E360FEF7B3
S3150800365027FB2046694600950195FEF72EF903B02B
S3150800366030BD00BFDC0600200014004007B5036823
S31508003670154A934210D1154B0021DA691D2042F0F4
S315080036800202DA61DB690A4603F002030093009B33
S31508003690FFF776FB1D2012E00D4A934211D10B4B22
S315080036A00021DA69372042F02002DA61DB690A462E
S315080036B003F020030193019BFFF762FB3720FFF716
S315080036C091FB03B05DF804FB0004004000100240C3
S315080036D00014004008B5FFF7A7FEBDE80840FFF74D
S315080036E0B0BB0120FFF71EB80148FFF7A1B900BF1C
S315080036F0481100200148FFF79BB900BF28060020A3
S315080037000148FFF7D0BB00BF181100200148FEF79B
S31508003710D7B900BFA00600200148FDF7F9BF00BFD2
S31508003720600600200148FDF7F3BF00BFE80500204A
S315080037300148FEF7C5B900BFDC0600200B4B07B5EC
S315080037409A69032042F001029A619B6903F001031A
S315080037500193019BFFF702FB00214FF0FF300A4659
S31508003760FFF70EFB03B05DF804FB00BF0010024034
S3150800377070B54FF4803392B00024022501260993D0
S31508003780109308A84FF48023119308960A940F956E
S31508003790FEF722FB214603A8039604950594069492
S315080037A00794FEF7DFFD684600950294FEF792FA45
S315080037B0FEF7B0FE4FF47A73B0FBF3F0FFF71EFB8B
S315080037C00420FFF731FB4FF0FF3021462246FFF772
S315080037D0D7FA12B070BD000070B5334E334C344979
S315080037E03268344809882368551C20F8123020F8B6
S315080037F015103148314D0068814203DB30490968AC
S315080038008B4202DB4FF0FF31296040F2523102321F
S315080038108A42A8BF0A4629683260013103D129497C
S3150800382009688B4203DD40F252318A4217D1264895
S31508003830FEF772F8254A012313602B60214B244AB0
S315080038401B680021236033682248023B13600A463E
S315080038500B463160FFF76FFA80B100BFFDE7002124
S315080038601C480A46FFF767FA08B100BFFDE71A4B7E
S315080038702A681968236801FB023323601149236803
S315080038800A6893420E4AD8BF08681268C8BF184625
S31508003890904205DA0A68934203DC0A4B1B6800E08B
S315080038A01346236070BD00BF7C05002088050020F4
S315080038B018070020980700200400002008000020B0
S315080038C00C00002010000020A0060020780500202B
S315080038D0800500200411002014000020012808B5E6
S315080038E005D10348FEF70DF808B100BFFDE708BD8E
S315080038F0A006002013B5FEF7BBFF1948194C002394
S3150800390001A903600123C3608460FEF73BFFFEF74D
S31508003910C1FFFEF7ADFF144B21461A680220D317E4
S31508003920FEF7ECFF114B124C1A682070D317114999
S315080039300220FEF7E3FF104B20701A680F49D317D1
S315080039400220FEF7DBFF0E4B20701A680D49D317CD
S315080039500220FEF7D3FF2070FEF79CFF02B010BDD1
S315080039606407002000A00008100000200C000020BA
S31508003970FC10002004A000081400002008A000087D
S31508003980040000200CA00008084B1A68084B1A60AF
S31508003990084B1A68084B1A60084B1A68084B1A60D5
S315080039A0084B1A68084B1A60704700BF00A0000849
S315080039B01000002004A000080C00002008A0000841
S315080039C0140000200CA000080400002070B505466D
S315080039D008460C46164600F035FB284400F0CEFA99
S315080039E03060204600F02EFB214602462846BDE8F8
S315080039F0704000F02FBB000010B5044600F022FB13
S31508003A00214682B232230248BDE81040FDF7B4BD14
S31508003A10600600200000000073B50E46FDF792F917
S31508003A20FCF770FD1CA3D3E90023FCF7BFFD0022B9
S31508003A301B4BFCF7BBFDFDF77BF81A4B05461860D8
S31508003A40FDF7D4F9184B044618602846FCF75AFDCA
S31508003A500022164BFCF7AAFDFDF742F8144B154D4C
S31508003A6003FB04000A235843134B32461860092106
S31508003A7000902346284600F0B3FA104B0246186019
S31508003A800F48294692B2142302B0BDE87040FDF7EC
S31508003A9073BD00BFAFF300806666666666660A4059
S31508003AA00000303FF81000200011002000408F4031
S31508003AB018FCFFFF7E07002040070020940700201F
S31508003AC060060020AFF30080F8B5FFF7A1FCFFF70A
S31508003AD04FFE00F001F900F04DF900F0A5F900F0ED
S31508003AE069F9FFF785FDFFF7A7FDFFF7E1FCFFF78B
S31508003AF0F3FC1F4B1B68013301D0FFF745FF1D4838
S31508003B000021FFF7D0F808B100BFFDE71A481B49A6
S31508003B100422FFF751FB08B100BFFDE71848194911
S31508003B200122FDF785FD18B100BFFDE700232B60D4
S31508003B30154D2B68012BFBD1144B00221A601F462A
S31508003B40134A3B681268114C9342EFDC114E124936
S31508003B5036F81300FFF760FF22681049013236F87D
S31508003B601200FFF759FF226802322260E8E700BF19
S31508003B7000A00008041100201811002018070020D2
S31508003B80600600207C0700207805002074070020C6
S31508003B908005002098070020786F0008826F0008CB
S31508003BA010B5364B36491878364B0D2802D01A68A8
S31508003BB01D2A57D1186800220A54334930481A601A
S31508003BC0FCF726FB014678B9304B31480A461B6894
S31508003BD0FFF7B1F808B100BFFDE72E48FDF791FEE3
S31508003BE0002842D000BFFDE725482B49FCF710FB0B
S31508003BF000282AD022482949FCF70AFB08B9284890
S31508003C0024E0284C1E4828492246FFF7DFFE50B913
S31508003C102368264C26482360FFF7EEFE20682549D0
S31508003C20FFF7FAFE11E0164823492246FFF7CEFEB3
S31508003C3010B92268214B07E0114821492246FFF7AF
S31508003C40C5FE30B922681F4B1A601F48FFF7D4FE1D
S31508003C500BE00B481D49FCF7DBFA30B9FFF74AFEC3
S31508003C601B48F3E7885401321A601A4803490122AF
S31508003C70FDF7DEFC08B100BFFDE710BD7C0700209C
S31508003C8044070020840500208C6F00088805002062
S31508003C9004110020A0060020956F0008986F000800
S31508003CA0A06F0008780700207C700008100000202C
S31508003CB08D700008937000089D70000804000020AD
S31508003CC0AC70000814000020D1700008B970000814
S31508003CD0C170000860060020224B30B59A6989B089
S31508003CE042F010029A619A69002402F010020092CA
S31508003CF0009A9A69012542F020029A619A6904A9F4
S31508003D0002F020020192019A9A69174842F00402C9
S31508003D109A619A6902F004020292029A9A6942F03A
S31508003D2008029A619B69049503F008030393039BB1
S31508003D300E4B06940593FEF733FC4FF480730493F9
S31508003D4004A902230A4807930595FEF729FC21468C
S31508003D5022460620FFF714F80620FFF743F809B0B5
S31508003D6030BD00BF001002400008014000001110DD
S31508003D70001001400E4B07B55A69002142F00102B6
S31508003D805A615B690A4603F0010301930B20019B04
S31508003D90FEF7F6FF0B20FFF725F800210A460F204D
S31508003DA0FEF7EEFF0F20FFF71DF803B05DF804FBE2
S31508003DB00010024013B50A4C0A4B20462360FEF752
S31508003DC05FFF00226946204600920192FEF792FFA5
S31508003DD0204669461022FEF78DFF02B010BD00BFCF
S31508003DE004110020007400407FB502680C4B9A420B
S31508003DF012D103F5CE33DA690A4842F00052DA6185
S31508003E00DB6902A903F000530193019B3023029357
S31508003E1003230393FEF7C4FB07B05DF804FB00BF5A
S31508003E2000740040000801407FB51A4C1A4B04265E
S31508003E3023604FF480730025A36020464FF40023C7
S31508003E40E361E560656165602661FFF73DFA022377
S31508003E500DEB06012046019302930395FFF7A8F898
S31508003E6006230DEB0601204601930296FFF7A0F8FC
S31508003E7003230DEB0601204601930293FFF798F8FA
S31508003E80012320460DEB060101930293FFF790F8F4
S31508003E9004B070BD181100200024014070B50368F5
S31508003EA01C4A86B09342054631D11B4B02A99A6932
S31508003EB01A4842F400729A619B69194C03F400731C
S31508003EC00193019B4E23029303230393FEF768FB9A
S31508003ED0144B002684E848008023E3604FF480737F
S31508003EE023614FF4806363612023A36120464FF466
S31508003EF00053E361A660FEF749FD2C6212203146A5
S31508003F0032466562FEF73CFF1220FEF76BFF06B0ED
S31508003F1070BD00BF002401400010024000080140A7
S31508003F204811002008000240002100F004B80D4B9B
S31508003F305B58435004310C480C4B42189A42FFF424
S31508003F40F6AF0B4A00F003B8002342F8043B094BCE
S31508003F509A42FFF4F9AFFFF783FA00F013F8FFF778
S31508003F60B3FD704754730008000000205805002070
S31508003F705805002084110020FFF7FEBF00210A2201
S31508003F8000F000B970B50E4B0E4D0024ED1AAD10B9
S31508003F901E46AC4204D056F8242090470134F8E770
S31508003FA002F0C6FF084D094B0024ED1AAD101E4657
S31508003FB0AC4204D056F8242090470134F8E770BD87
S31508003FC04C7300084C730008507300084C730008C3
S31508003FD002440346934202D003F8011BFAE77047EE
S31508003FE00CB430B5164B0C1E9DB01D6804DA8B2335
S31508003FF02B604FF0FF301EE04FF40273ADF814301B
S3150800400014BF04F1FF332346049307934FF6FF7357
S3150800401002900690ADF81630284621AB02A9209AE0
S31508004020019300F0BDF8431CBCBF8B232B6014B171
S31508004030029B00221A701DB0BDE8304002B07047DE
S315080040400C010020034613F8012B002AFBD1181A8D
S315080040500138704770B58AB10B4605461C7810F8CA
S31508004060016B0131B44201D1012A03D128781B78AA
S31508004070C01A70BD013A002CEED1F7E7104670BDA4
S3150800408084463F482DE9F04FD0F800800E46344666
S3150800409014F8015B08EB0500407800F0080000F012
S315080040A0FF0708B12646F2E72D2D03D1B41C757813
S315080040B0012703E02B2D04BF7578B41C33F01000DC
S315080040C00DD1302D08D1207800F0DF00582851D1C5
S315080040D065781023023402E0002B08BF0A23002F5C
S315080040E00CBF6FF0004A4FF0004ABAFBF3F903FB26
S315080040F019AA0026304608EB050B9BF801B01BF001
S31508004100040F01D0303D0BE01BF0030B1BD0BBF1B5
S31508004110010F14BF4FF0570B4FF0370BCBEB0505CC
S315080041209D4210DAB6F1FF3F0AD0484506D801D1BC
S31508004130554503DC03FB0050012601E04FF0FF362E
S3150800414014F8015BD7E7731C0CD1002F4FF022033C
S315080041500CBF6FF000404FF00040CCF800302AB991
S31508004160BDE8F08F07B1404242B106B1611E116049
S31508004170BDE8F08F002B08BF0823B0E7BDE8F08F35
S315080041801800002030B51346044A05460C46106848
S3150800419029462246BDE83040FFF772BF0C010020D1
S315080041A02DE9F04FC3B08B4698460B92824601F034
S315080041B0DFFD00681890FFF745FFBBF80C3010903C
S315080041C0190615D5DBF8103093B95046402101F091
S315080041D0DBFDCBF80000CBF8100030B90C23CAF889
S315080041E000304FF0FF3000F06EBF4023CBF814309C
S315080041F000240025CDE90C45002332AE25962793E9
S31508004200269309931B931A930F930B9B1C4613F83B
S31508004210012B1AB90B98251A03D11BE0252AF5D1CB
S31508004220F8E7279B0B992B442793269B86E82200C1
S315080042300133072B269301DC083608E05046594619
S3150800424025AA02F0E1FA002840F0358732AE0F9A27
S315080042502A440F922378002B00F026870023013486
S315080042608DF877304FF0FF390E931F46651C24787A
S315080042700B950894089CA4F12002582A00F285831D
S31508004280DFE812F06D008303830371008303830361
S3150800429083038303830383035B0059008303770047
S315080042A07A0083039F00A200A200A200A200A20037
S315080042B0A200A200A200A200830383038303830350
S315080042C0830383038303830383038303D300FE00EB
S315080042D08303FE008303830383038303B6008303F8
S315080042E083036B0283038303830383038303BB0272
S315080042F0830383036800830383038303830383039E
S3150800430083038303830383038303C9006500FE00D5
S31508004310FE00FE00B900650083038303BC00830327
S315080043204C026D028C02C60083039E028303BD0203
S3150800433083038303D8022B2307E0D8F8005008F13B
S315080043400402002D0E9511DB90460B9C8EE78DF826
S3150800435077306EE0AB4C8DF877301B946EE2002B0D
S3150800436008BF2023F1E747F00107EEE76D420E95F7
S31508004370904647F00407E8E70B9C2578621C2A2D2F
S31508004380089502D04FF000090BE0D8F8009008F124
S315080043900401B9F1000F88460B92D6DA4FF0FF39BF
S315080043A0D3E7089DA5F13001092906D812F8014B73
S315080043B00A2000FB09190894F3E749EAE9790B9200
S315080043C058E747F08007C0E700240E94089D0E9C26
S315080043D0A5F130020A2101FB04240B9A0E9412F867
S315080043E0015BA5F1300109290895E8D80B92EDE79C
S315080043F047F00807A9E747F04007A6E70B9C22788D
S315080044006C2A02D101340B9402E047F010079CE7AE
S3150800441047F0200799E7D8F8003000258DF8A03036
S315080044208DF8775008F10408BAE28DF8773047F02E
S315080044301007BA0608D508F1070828F0070303F19C
S315080044400808D3E900450FE017F0100F08F1040338
S3150800445002D0D8F8004005E0D8F8004017F0400F21
S3150800446018BF24B2E5179846002C75F1000180F2B2
S3150800447010822D23644265EB45058DF8773008E2F6
S31508004480089C08F107088DF877300A9728F0070383
S315080044901194D3E90045CDE90C45DDE90C0103F19A
S315080044A0080802F07FF90128DDE90C0114D1002281
S315080044B00023FCF7EDFA10B12D238DF87730089D0F
S315080044C0514B524A27F08007472DD8BF1A46079204
S315080044D04FF0030900256AE202F064F958B94C4B1B
S315080044E04C4A089C27F08007472CD8BF1A460792E3
S315080044F04FF003095AE2B9F1FF3F0AD0089D25F0AB
S315080045002003472B07D1B9F1000F08BF4FF0010967
S3150800451001E04FF00609DDE90C23002B47F480770C
S3150800452008DA0D990C9801F100412D241290139187
S31508004530199405E0DDE90C45CDE9124500251995E4
S31508004540089D25F02004462C04D0452C05D109F1F8
S31508004550010503E04D46032301E04D4602238DE89D
S3150800456028001FAB029320AB039323AB049350465A
S31508004570DDE9122300F03CFE472C07900AD10A9881
S31508004580C30707D4239B079D472CC5EB0303099351
S3150800459042D12DE0DDF81CC0462CAC4413D1079857
S315080045A00378302B0DD1DDE9120100220023CDF866
S315080045B018C0FCF763FADDF818C010B9C5F1010593
S315080045C01F951F9B9C44DDE9120100220023CDF8AC
S315080045D018C0FCF753FADDF818C008B1CDF88CC03E
S315080045E0239B6345CED25A1C239230221A70F7E7D2
S315080045F01F9BDC1C01DB4B456EDD089C023C0894C6
S315080046000DE000BFF6700008E6700008EA700008C2
S31508004610EE700008F2700008089D652D43DC1F9BAC
S31508004620089C013B002B1F93BABF5B422D222B220D
S31508004630092B8DF884408DF885201DDD0DF1920239
S315080046400A2093FBF0F100FB1133092903F130032B
S31508004650144602F801390B46F2DC01F1300304F87E
S31508004660013D0DF186030DF1930294420BD214F825
S31508004670012B03F8012BF6E7302213448DF8873017
S315080046808DF8862022AB099D21AA9A1A9146012DFA
S315080046901A92A94403DC0A9D15F0010437D009F1E2
S315080046A00109002433E0089C662C15D11F9B002BBA
S315080046B009DDB9F1000F02D10A9DE80723D509F1F2
S315080046C001094B441FE0B9F1000F02D10A9CE1072A
S315080046D015D509F1020316E01F9B099DAB4204DBC1
S315080046E00A9CE2070DD5013306E0002B099CD4BFCE
S315080046F0C3F10203012323446725119503E001232F
S3150800470001E067241194119D1F9C08959946199DEF
S3150800471015B12D238DF87730002549E117F0200FC4
S315080047208DF8773008F1040108D00F9CD8F80000FE
S31508004730E51722462B46C0E900230CE0FB0606D403
S315080047407D0604D5D8F800300F9C1C8003E0D8F805
S3150800475000300F9D1D60884657E547F0100717F093
S31508004760200309D008F1070828F0070303F1080811
S31508004770D3E90045002388E017F0100108F1040288
S3150800478007D117F0400304D0B8F80040002590463A
S31508004790F0E7D8F800400025904676E0A94830238F
S315080047A07822D8F800408DF87830002547F00207BF
S315080047B08DF8792008F104081B900223089264E01A
S315080047C0434600251B68A945079308F104088DF898
S315080047D077500DDB184629464A4601F0E5FC0028C5
S315080047E000F0E480079C001B4845B8BF8146DEE020
S315080047F00798FFF727FC8146D9E047F01007BC0663
S3150800480008D508F1070828F0070303F10808D3E9D3
S3150800481000450DE017F0100F08F1040304D17806DF
S3150800482002D5B8F8004001E0D8F8004000259846BF
S3150800483001232AE0834D8DF877301B95B90608D5F4
S3150800484008F1070828F0070303F10808D3E900452B
S315080048500DE017F0100F08F1040304D17A0602D50B
S31508004860B8F8004001E0D8F8004000259846FB0754
S315080048700AD554EA050007D0089930238DF8783010
S315080048808DF8791047F00207022300228DF8772069
S3150800489000E00123B9F1000FA8BF27F0800754EA0A
S315080048A0050202D1B9F1000F5AD0012B1FD0022BF5
S315080048B00DF1C70341D0E10841EA4570E90804F063
S315080048C00702149015913032DDE9144554EA0500C3
S315080048D007931A7003F1FF33EDD1F80707994CD502
S315080048E0302A4AD00793302301F8013C45E0002DD1
S315080048F008BF0A2C05D230348DF8C7400DF1C7041D
S315080049003AE00DF1C7000A900A99204607910A2253
S3150800491029460023FCF790FA0A9B303203F801294E
S315080049200A93204629460A220023FCF785FA0446FC
S315080049300D4654EA0500E7D11FE01B9904F00F0263
S315080049408A5C079303F80129220942EA05702909B6
S3150800495016901791DDE9164554EA0502EDD10CE0EB
S3150800496033B9FB0707D542AC302304F8413D03E0D1
S3150800497032AD079501E032AC0794079C4D460DF120
S31508004980C809C4EB0909002412E0089D8DF87730A0
S31508004990002D00F089838DF8A05000258DF87750FA
S315080049A028A84FF001092C46079001E005462C4639
S315080049B09DF87730A945ACBF494629460A910BB1FF
S315080049C001310A9117F00203119302D00A980230B6
S315080049D00A9017F08403199341D10E980A99C1EBEE
S315080049E0000CBCF1000F3ADD174BBCF1100F336019
S315080049F01BDD10237360279B10332793269B0133F7
S31508004A00072B269301DC08360CE05046594625AAA2
S31508004A10CDF818C001F0F8FEDDF818C0002840F0FF
S31508004A204A8332AEACF1100CDEE7279BC6F804C009
S31508004A3063442793269B0133072B269306DC083607
S31508004A400DE000BF077100081A7100085046594664
S31508004A5025AA01F0D9FE002840F02D8332AE9DF834
S31508004A607730BBB10DF17703336001237360279B61
S31508004A7001332793269B0133072B269301DC08363F
S31508004A8008E05046594625AA01F0BEFE002840F027
S31508004A90128332AE119BB3B11EAB3360022373602F
S31508004AA0279B02332793269B0133072B269301DC8A
S31508004AB0083608E05046594625AA01F0A5FE002802
S31508004AC040F0F98232AE199B802B3CD10E980A9998
S31508004AD0C1EB000CBCF1000F35DD9C4BBCF1100F8F
S31508004AE033601BDD10237360279B10332793269BA7
S31508004AF00133072B269301DC08360CE0504659464D
S31508004B0025AACDF818C001F07FFEDDF818C00028E8
S31508004B1040F0D18232AEACF1100CDEE7279BC6F826
S31508004B2004C063442793269B0133072B269301DC95
S31508004B30083608E05046594625AA01F065FE0028C1
S31508004B4040F0B98232AEC9EB0505002D2EDD7F4B4C
S31508004B50102D336016DD10237360279B10332793BF
S31508004B60269B0133072B269301DC083608E05046BE
S31508004B70594625AA01F048FE002840F09C8232AE2C
S31508004B80103DE4E7279B75601D44269B2795013356
S31508004B90072B269301DC083608E05046594625AA15
S31508004BA001F032FE002840F0868232AEFD0505D4BB
S31508004BB0079C279B86E810024B44DAE0089D652D82
S31508004BC040F3A781DDE90C0100220023FBF756FF1D
S31508004BD0002859D05E4B336001237360279B01334D
S31508004BE02793269B0133072B269301DC083608E01A
S31508004BF05046594625AA01F007FE002840F05B8278
S31508004C0032AE1F9B099CA34202DBFC0740F10282DD
S31508004C10109C279B189D23442793269B35600133B8
S31508004C20072B7460269301DC083608E0504659467F
S31508004C3025AA01F0E9FD002840F03D8232AE099D23
S31508004C406C1E002C40F3E681404B102C336016DDB9
S31508004C5010237360279B10332793269B0133072B5A
S31508004C60269301DC083608E05046594625AA01F085
S31508004C70CBFD002840F01F8232AE103CE4E7279BAC
S31508004C8074601C44279434E11F9B002B73DC304B63
S31508004C90336001237360279B01332793269B0133D7
S31508004CA0072B269301DC083608E05046594625AA04
S31508004CB001F0AAFD002840F0FE8132AE1F9B23B901
S31508004CC0099C14B9F80740F1A581109C279B189DEB
S31508004CD023442793269B35600133072B746026935C
S31508004CE001DC083608E05046594625AA01F08CFD35
S31508004CF0002840F0E08132AE1F9C6442002C32DD71
S31508004D00124B102C336016DD10237360279B10336B
S31508004D102793269B0133072B269301DC083608E0E8
S31508004D205046594625AA01F06FFD002840F0C38178
S31508004D3032AE103CE4E7279B74601C44269B2794FC
S31508004D400133072B269305DC08360CE0D6700008DD
S31508004D50187100085046594625AA01F055FD002845
S31508004D6040F0A98132AE079D099C35607460279B87
S31508004D7023442793BDE00998079D8146A145A8BF0E
S31508004D80A146B9F1000F054415DD279B07994B4449
S31508004D902793269B86E802020133072B269301DC1C
S31508004DA0083608E05046594625AA01F02DFD002888
S31508004DB040F0818132AE29EAE979C9EB0409B9F1F3
S31508004DC0000F31DD9A4BB9F1100F336017DD102350
S31508004DD07360279B10332793269B0133072B269353
S31508004DE001DC083608E05046594625AA01F00CFDB4
S31508004DF0002840F0608132AEA9F11009E2E7279B4E
S31508004E00C6F804904B442793269B0133072B269319
S31508004E1001DC083608E05046594625AA01F0F4FC9C
S31508004E20002840F0488132AE1F9B0998079A8342B2
S31508004E30144401DBF90716D5109A279B18991344D1
S31508004E402793269B31600133072B7260269301DC7A
S31508004E50083608E05046594625AA01F0D5FC002830
S31508004E6040F0298132AE1F9B09982D1BC31A9D421B
S31508004E70A8BF1D46002D14DD279B86E830002B446D
S31508004E802793269B0133072B269301DC083608E077
S31508004E905046594625AA01F0B7FC002840F00B8178
S31508004EA032AE1F9B099C25EAE575E31A5D1B002DAA
S31508004EB040F3B0805E4B102D336016DD102373600F
S31508004EC0279B10332793269B0133072B269301DC58
S31508004ED0083608E05046594625AA01F095FC0028F0
S31508004EE040F0E98032AE103DE4E7279B75601D442B
S31508004EF02795269B0133072B269340F38A80504635
S31508004F00594625AA01F080FC002840F0D48032AE2C
S31508004F1080E0099D012D01DCFA076DD50123736038
S31508004F20279B079C01332793269B34600133072B65
S31508004F30269301DC083608E05046594625AA01F0B2
S31508004F4063FC002840F0B78032AE109C279B189D62
S31508004F5023442793269B35600133072B74602693D9
S31508004F6001DC083608E05046594625AA01F04CFCF3
S31508004F70002840F0A08032AEDDE90C0100220023B3
S31508004F80FBF77CFD099D6C1E40B9079D6B1C86E8E6
S31508004F901800279B099C013B234433E0002C34DD91
S31508004FA0234B102C336015DD10237360279B1033B9
S31508004FB02793269B0133072B269301DC083607E047
S31508004FC05046594625AA01F01FFC002873D132AE77
S31508004FD0103CE5E7279B74601C442794269B013305
S31508004FE0072B269310DD5046594625AA01F00CFCDE
S31508004FF0002860D132AE08E00123079D7360279B25
S31508005000356001332793E9E7083621AB33601A9CEC
S31508005010ACE608367B070DD40F9D0A980E9C279B95
S31508005020A042ACBF2D182D190F95002B37D030E0B4
S31508005030D67000080E9D0A982C1A002CECDD234B1E
S31508005040102C336014DD10237360279B10332793CD
S31508005050269B0133072B269301DC083606E05046CB
S31508005060594625AA01F0D0FB28BB32AE103CE6E72C
S31508005070279B74601C44269B27940133072B269391
S31508005080CADD5046594625AA01F0BEFB0028C3D002
S3150800509011E05046594625AA01F0B6FB58B9002337
S315080050A0269332AEFFF7B1B8279B23B1504659462F
S315080050B025AA01F0A9FBBBF80C300F9813F0400F96
S315080050C018BF4FF0FF3043B0BDE8F08F1A710008E3
S315080050D02DE9F74F03690C698046A342C0F2838025
S315080050E0013CA20001F1140700F114059146009253
S315080050F057F824602A44019255F824200136B2FB59
S31508005100F6F6B944002E3BD04FF0000E3A46284634
S31508005110F34652F804CB03681FFA8CFA4FEA1C4C84
S315080051200AFB06EA0CFB06FC0CEB1A4C1FFA8AFA79
S31508005130CAEB0B0B4FEA1C4E1FFA83FA1FFA8CFCBC
S31508005140DA44CCEB134C0CEB2A4C1FFA8AFA4AEADF
S315080051500C4A4A454FEA2C4B40F804ABD9D9009A79
S31508005160AB586BB9019A131FAB421A4602D8C8F856
S31508005170104005E01268043B002AF8D1013CF3E729
S31508005180404601F040FA00282BDB01362B4600206A
S3150800519057F804CB1A681FFA8CF1411A1FFA82FADB
S315080051A04FEA1C4C5144CCEB124202EB214289B225
S315080051B010144F4541EA024243F8042BE8D955F842
S315080051C0242005EB840362B9043BAB421A4602D895
S315080051D0C8F8104005E01268043B002AF8D1013CE3
S315080051E0F3E7304600E0002003B0BDE8F08F00008A
S315080051F02DE9F04F456A9BB08246279CCDE90423EA
S3150800520045B9102000F0B8FDCAF82400456085604D
S315080052100560C560DAF82430196861B15B68012257
S315080052204B6002FA03F350468B6001F00BF8DAF88C
S31508005230243000221A600598002805DA012320F098
S3150800524000412360059101E000232360059F9C4AE5
S3150800525027F000431B0D1B0593421DD1269A42F2E7
S315080052600F731360049B43B9964B974AC7F3130011
S3150800527000280CBF1046184600E09248289F002FC9
S3150800528000F07185C37813B100F1080300E0C31C70
S31508005290289F3B6000F067BDDDE9044500222046F3
S315080052A029460023FBF7EAFB804658B1269F0123CF
S315080052B03B60289F002F00F05385844838600138EA
S315080052C000F051BD19AB009318AB01935046224626
S315080052D02B4601F014FAC7F30A5683465EB1C5F3A6
S315080052E0130343F07F51204641F44011A6F2FF36DE
S315080052F0CDF854801CE0199B189E1E446FF48263F7
S315080053009E4209DB04991F3306F212409B1B21FAC1
S3150800531000F09F40384304E06D48049A801B02FA67
S3150800532000F0FBF7CDF80127A1F1F871013E1597BA
S315080053300022684BFAF786FF5BA3D3E90023FBF745
S3150800534035F95BA3D3E90023FAF77EFF0446304616
S315080053500D46FBF7C5F858A3D3E90023FBF726F952
S3150800536002460B4620462946FAF76EFF04460D46C6
S31508005370FBF7B6FB29468146002220460023FBF7A9
S3150800538087FB58B14846FBF7ABF802460B46204662
S315080053902946FBF773FB08B909F1FF39B9F1160F6E
S315080053A00DD84D4B03EBC903D3E90001DDE904230E
S315080053B0FBF78CFB30B109F1FF39002700E0012724
S315080053C0149700E01490189B9E1B013E099604D57D
S315080053D0774208970027099701E000270897B9F14F
S315080053E0000F07DB099FCDF844904F440997002723
S315080053F00E9708E0089FC9EB07070897C9F1000749
S315080054000E9700271197249F092F29D8052FC4BF67
S31508005410043F2497249FC8BF0025A7F10203D8BFDD
S315080054200125032B21D8DFE803F0060F0204012724
S3150800543002E0012709E000270F97259F002F1EDDB0
S315080054400B9707973B461FE000270F97259F4F446A
S315080054500B9701373B460797012BB8BF012313E08B
S315080054600125002724970F9501E001270F974FF094
S31508005470FF370B97079700271223259704E0012784
S315080054800B9707973B462597DAF824400022626077
S31508005490042101F114029A4220D8626849000132B7
S315080054A06260F6E7AFF3008061436F63A787D23F78
S315080054B0B3C8608B288AC63FFB799F501344D33FF5
S315080054C00000F07F347200082B720008197100087A
S315080054D0EEFBFFFF0000F83F48720008504661687F
S315080054E000F07BFEDAF824302060079F1B680E2F39
S315080054F00A9300F26B81002D00F06881B9F1000F64
